S018000041546D65676133325F447269766572732E737265633A
S11300000C942A000C943C000C943C000C943C008E
S11300100C943C000C943C000C943C000C943C006C
S11300200C943C000C943C000C94A8000C948600A6
S11300300C943C000C943C000C943C000C943C004C
S11300400C943C000C943C000C943C000C943C003C
S11300500C943C0011241FBECFE5D8E0DEBFCDBF19
S113006020E0A0E6B0E001C01D92A236B207E1F79D
S11300700E943E000C944C020C9400000E94470025
S113008060E070E080E09FE30E946100FFCF83B7EF
S1130090806483BF83B7886083BF83B78F7E83BF49
S11300A083B7806283BF83B78E7F83BF83B78D7F1F
S11300B083BF83B7846083BF87B3886087BB1CBE5C
S11300C00895CF92DF92EF92FF926B017C0120E0C2
S11300D030E0A9010E943601811102C01CBE11C08A
S11300E020E030E040E853E4C701B6010E94DF019C
S11300F020E030E040E85FE30E94C9000E943B0139
S11301006CBFFF90EF90DF90CF9008951F920F92F5
S11301100FB60F9211248F939F938091600090915A
S1130120610001969093610080936000409749F4C8
S113013010926100109260008EEB82BF88B38058E9
S113014088BB9F918F910F900FBE0F901F901895B1
S11301501F920F920FB60F9211248F939F93809149
S1130160600090916100019690936100809360001B
S11301708D37910539F4109261001092600088B3B4
S1130180805888BB9F918F910F900FBE0F901F9046
S113019018955058BB27AA270E94E1000C94A5018A
S11301A00E94970138F00E949E0120F039F49F3F8D
S11301B019F426F40C9494010EF4E095E7FB0C94E6
S11301C08E01E92F0E94B60158F3BA17620773072C
S11301D08407950720F079F4A6F50C94D8010EF461
S11301E0E0950B2EBA2FA02D0B01B90190010C0143
S11301F0CA01A0011124FF27591B99F0593F50F45B
S1130200503E68F11A16F040A22F232F342F4427B2
S1130210585FF3CF469537952795A795F0405395AA
S1130220C9F77EF41F16BA0B620B730B840BBAF07A
S11302309150A1F0FF0FBB1F661F771F881FC2F7E5
S11302400EC0BA0F621F731F841F48F487957795F9
S11302506795B795F7959E3F08F0B0CF9395880FB3
S113026008F09927EE0F9795879508950E946A01E3
S113027008F481E008950E94BE0188F09F5798F029
S1130280B92F9927B751B0F0E1F0660F771F881F97
S1130290991F1AF0BA95C9F714C0B13091F00E94B1
S11302A0D801B1E008950C94D801672F782F8827DE
S11302B0B85F39F0B93FCCF3869577956795B395D8
S11302C0D9F73EF490958095709561957F4F8F4F47
S11302D09F4F0895990F0008550FAA0BE0E8FEEF11
S11302E016161706E807F907C0F012161306E407F6
S11302F0F50798F0621B730B840B950B39F40A26EF
S113030061F0232B242B252B21F408950A2609F4CC
S1130310A140A6958FEF811D811D089597F99F67D0
S113032080E870E060E008959FEF80EC0895002479
S11303300A941616170618060906089500240A9446
S113034012161306140605060895092E0394000CCC
S113035011F4882352F0BB0F40F4BF2B11F460FF5B
S113036004C06F5F7F4F8F4F9F4F089557FD905884
S1130370440F551F59F05F3F71F04795880F97FB65
S1130380991F61F09F3F79F087950895121613061F
S11303901406551FF2CF4695F1DF08C0161617064E
S11303A01806991FF1CF8695710561050894089583
S11303B0E894BB2766277727CB0197F908950E9415
S11303C0F2010C94A5010E94970138F00E949E014D
S11303D020F0952311F00C948E010C9494011124B7
S11303E00C94D9010E94B60170F3959FC1F3950F47
S11303F050E0551F629FF001729FBB27F00DB11DA5
S1130400639FAA27F00DB11DAA1F649F6627B00D34
S1130410A11D661F829F2227B00DA11D621F739F1D
S1130420B00DA11D621F839FA00D611D221F749F2B
S11304303327A00D611D231F849F600D211D822F72
S1130440762F6A2F11249F5750409AF0F1F0882399
S11304504AF0EE0FFF1FBB1F661F771F881F9150C6
S11304605040A9F79E3F510580F00C948E010C94E6
S1130470D9015F3FE4F3983ED4F386957795679569
S1130480B795F795E7959F5FC1F7FE2B880F911DF0
S10F04909695879597F90895F894FFCF8E
S9030000FC
