:100000000C942A000C943C000C943C000C943C0092
:100010000C943C000C943C000C943C000C943C0070
:100020000C943C000C943C000C9456000C943F0043
:100030000C943C000C943C000C943C000C943C0050
:100040000C943C000C943C000C943C000C943C0040
:100050000C943C0011241FBECFE5D8E0DEBFCDBF1D
:1000600020E0A0E6B0E001C01D92A236B207E1F7A1
:100070000E943E000C9477000C940000FFCF1F926A
:100080000F920FB60F9211248F939F93809160006F
:1000900090916100019690936100809360009F9120
:1000A0008F910F900FBE0F901F9018951F920F9277
:1000B0000FB60F9211248F939F93809160009091BF
:1000C0006100019690936100809360008D379105E7
:1000D00039F4109261001092600088B3805888BB98
:1000E0009F918F910F900FBE0F901F901895F894CD
:0200F000FFCF40
:00000001FF
