:100000000C942A000C943C000C943C000C943C0092
:100010000C943C000C943C000C943C000C943C0070
:100020000C943C000C943C000C9482000C946000F6
:100030000C943C000C943C000C943C000C943C0050
:100040000C943C000C943C000C943C000C943C0040
:100050000C943C0011241FBECFE5D8E0DEBFCDBF1D
:1000600020E0A0E6B0E001C01D92A236B207E1F7A1
:100070000E943E000C94A3000C94000087B388609B
:1000800087BB0E944400FFCF83B78F7B83BF83B7BA
:10009000886083BF83B7806183BF83B78F7D83BF51
:1000A00083B7816083BF83B7826083BF83B78B7F51
:1000B00083BF789489B7826089BF8DE78CBF08952C
:1000C0001F920F920FB60F9211248F939F938091DE
:1000D00060009091610001969093610080936000B0
:1000E000409749F410926100109260008EEB82BF3D
:1000F00088B3805888BB9F918F910F900FBE0F904F
:100100001F9018951F920F920FB60F9211248F9384
:100110009F9380916000909161000196909361009F
:10012000809360008D37910539F410926100109230
:10013000600088B3805888BB9F918F910F900FBE4D
:0A0140000F901F901895F894FFCF60
:00000001FF
